:10000000A0410020E9AF000001CA011001CA01109F
:1000100001CA011001CA011001CA011001CA011070
:1000200001CA011001CA011001CA011001CA011060
:1000300001CA011001CA01103FCA01102149086814
:10004000C2430A600A680242FAD170471E490A6830
:10005000002AFCD1CA610860C8690028FCD00020D1
:10006000C861486870471948016821F0020141F4ED
:100070000071016003211648816041F23001416145
:100080000121C160502141610121C1604FF4CA6169
:1000900041610121C160016070470E4802680A6039
:1000A00082684A60C2688A60406B4001400940F043
:1000B0008050C8607047704701461022064802F021
:1000C000F3BB000010100440001004400000046066
:1000D000004104404C13005018000021002208F099
:1000E00027BA01207047000020000000FFFFFFFF3B
:1000F000FFFFFFFFFFFFFFFFFFFFFFFFFFFFFFFF10
:100100003C0000000000000000000000340100007E
:1001100000000000000000000100000000000000DE
:1001200000000000000000000000000001000000CE
:100130000000000008000000000000003400000083
:100140000000000000000000680100000000000046
:10015000000000000100000000000000010000009D
:100160000000000000000000080000000000000087
:1001700030000000000000000000000098010000B6
:10018000040000000000000001000000FFFFFFFF6E
:10019000FF00000001000000080000000000000057
:1001A0002C0000000000000000000000C40100005E
:1001B000040000000000000001000000FFFFFFFF3E
:1001C000FFFFFFFF080000000000000034050000F2
:1001D000E401000099A1011095A70110A5C201102A
:1001E00009B2011045B80110000000000000000035
:1001F0002F000000280000000000000000000000A8
:10020000140200000000000000000000FFFFFFFFDC
:1002100000000000080000000000000030050000A1
:100220003002000069C201106DC101101FC201102F
:1002300095BA011000000000000000002D00000031
:10024000300500005402000075C20110A9B601106B
:100250009DBF011049B60110000000000000000021
:100260002E0000002400000000000000000000003C
:1002700080020000000000000000000000000000FC
:100280000800000000000000240000000000000042
:1002900000000000A40200000000000000000000B8
:1002A0000000000008000000000000002400000022
:1002B0000000000000000000C80200000000000074
:1002C0000100000000000000080000000000000025
:1002D00000000000D407002004000000000000001F
:1002E000000000002000000070010000300000004D
:1002F0001C020000F40700200400000000000000C1
:10030000000000000C000000300400001800000095
:1003100040020000FC070020040000000000000074
:100320000000000024000000480400001800000045
:10033000000000003C080020040000000000000055
:100340000000000010000000A00100002C000000D0
:10035000CC01000044080020040000000000000060
:1003600000000000200000006402000024000000E3
:10037000FFFFFFFF640800200400000000000000F1
:100380000000000028000000880200002400000097
:10039000FFFFFFFF940800200400000000000000A1
:1003A00000000000580000003C0100003400000084
:1003B000FFFFFFFF9C080020040000000000000079
:1003C00000000000100000006004000018000000A1
:1003D000FFFFFFFFA4080020040000000000000051
:1003E000000000001C000000AC020000240000001F
:1003F000FFFFFFFFAC080020040000000000000029
:100400000000000038000000F40100002800000097
:10041000FFFFFFFF1409002004000000000000009F
:100420000000000054000000000100003C0000003B
:100430001800000000000000000000004004000060
:10044000080000000000000018000000000000008C
:100450000000000058040000080000000000000038
:100460001800000000000000000000007004000000
:1004700008000000000000000100000030B0000093
:1004800000FFFFFF0100000000000C0000000D0055
:100490003200000001000000DC0700200002000024
:1004A0000000000001CA0110000000000000000070
:1004B00008000000000021000408002001000000E6
:1004C0004C080020080000000000000000000000B0
:1004D000000000000000000000000000010000001B
:1004E000B408002006000000010000001C090020E4
:1004F00000000000000000000002000000000000FA
:10050000FFFF2900010025002D002E002F00010013
:1005100001FFFFFF0400000014B000000000000015
:1005200000000000000001000000030087C401106B
:1005300038050000380500000000000090000000B1
:1005400090000000000000004C080020319C0000DA
:100550002000000000B00000D0AD00000DC301106D
:100560000D1F00000F1F000099C801109BC801104B
:10057000000000008004000010AD000028AD000065
:10058000F8AC0000080009000100000001FFFFFFB7
:10059000000000000000000000000000000000005B
:1005A000631E0000831E00008B1D0000AD1E0000B6
:1005B000D11D0000A71D0000031E0000D91E000071
:1005C000A99B0000E99C0000ED9C000008000000D1
:1005D0002400000018000000280000002000000097
:1005E0003C0000000C00000034000000DFF800F0C8
:1005F00049C10110DFF800F0C1C10110DFF800F0BF
:1006000019C20110DFF800F041AC0110DFF800F072
:10061000CDA00110DFF800F085C10110DFF800F077
:10062000C1C20110DFF800F0E3BF0110DFF800F0F5
:10063000CDC10110DFF800F03DC10110DFF800F07E
:10064000DDB20110DFF800F085B00110DFF800F036
:1006500029AF0110DFF800F079B50110DFF800F0E4
:1006600009B70110DFF800F0E1C20110DFF800F077
:10067000B9C20110DFF800F0E9C20110DFF800F0A4
:1006800061C20110DFF800F0D5C00110DFF800F002
:10069000E1B5011020B1082328220021FFF7C6BFD1
:1006A000704720B1082330220021FFF7C3BF7047F5
:1006B00038B500F0DDFF25680DB129682160FFF72E
:1006C0009DFF284632BD70B504460D4626680020C1
:1006D00028601EB9FFF78AFF25600DE0FFF786FF4F
:1006E00000E0366831680029FBD1AE4203D1FFF744
:1006F00085FF002070BD3560FFF780FF012070BDD1
:10070000DFF8FC1C10B100200870202088707047B2
:10071000F8B50546FFF76AFFDFF8E07B0446387E50
:10072000E8B1401E3876C0B2C8B9082107F15000C0
:1007300001F0DDFA9DB1B86B683001F0E1F9B86BFA
:10074000DFF8341DC0680968281A07F1F006B0FB0D
:10075000F1F13046FFF762FF3046FFF763FF2046B6
:10076000BDE8F240FFF74ABF38B50446207B00F0F1
:100770000F00022802BFDFF8845B287D002815D116
:1007800000F0E6FCA1688908A1EB90006FF07041D1
:1007900088420BDA10F1805FBCBFDFF8E01C08185C
:1007A000A96BC96801F57A71814200DB002032BD76
:1007B00038B5DFF8500CDFF8502C0168DFF83C5BEF
:1007C00002EA0104E1430160A10606D54068800603
:1007D00003D54FF4005100F060FB14F4602F0DD0EE
:1007E000DFF89C0CC16904F460221143C16105F17A
:1007F000A000BDE83440002101F079BA31BDF8B560
:10080000FFF7F4FEDFF8787C3C1D0646A06910F483
:10081000602F25D0C5012D0EE80748BF002506D45E
:10082000A80748BF012502D4680748BF0225681DF4
:1008300040B200F0A5FFA069012105F1110291402D
:100840008843A06100F06CFD07EB850086683000EE
:1008500008D0206800224FF00063691DB04701E016
:1008600000F05EFDA06920B10021DFF8180C01F056
:100870003EFA607F80070DD52569280006D02068E4
:1008800000224FF000436FF00101A847607F00F0A5
:10089000FD006077F1BD70B5FFF7D0FBDFF85C5A63
:1008A000DFF8584DAB6A024690071DD4D3E9060124
:1008B000104007D0EB62196A084318624FF4804178
:1008C00000F0EBFAA86A002849D16E6A002E46D0E3
:1008D000F068A96B884224D005F15000BDE8704053
:1008E0004FF4805101F003BA0BB9A86AEAE700207F
:1008F000A862D3E906011E6A024042F002023243B6
:100900001A62626982436261E26822EA0100E06081
:10091000194605F13000FFF7D6FE022100F0BDFABE
:10092000E3E7B068FFF720FFE86418B1E86CBDE8C2
:100930007040EDE6D6E90601626902436261E26851
:1009400041EA0200E0600020E061B0682060E069F8
:100950000028FCD005F12400FFF7AAFEAE6270BDAE
:100960000020D5E6F8B506461446B76D1D4607B11A
:10097000B847A00706D4D6E914012040294008BF93
:10098000002807D0C6E9184506F13000BDE8F2405E
:10099000FFF738BEF1BD80B501F09CF9DFF85C29A6
:1009A0000146906BD26BBDE80840104710B5DFF8E8
:1009B0004C4901F0B7FA2064042104F15000BDE86D
:1009C000104001F094B980B5FFF738FBDFF8301C18
:1009D000084207D0BDE804404FF00051DFF84C0D4D
:1009E00001F085B901BD10B504294AD1DFF80C49E1
:1009F000606AA16B08B1C16805E0DFF86C0C427F4A
:100A0000D20748BF0168A1630846DFF8601C42684E
:100A100012780A60096840680078814200D0FEE7D9
:100A2000022001F0B9FB112001F0CBFB012060771F
:100A3000A06BE17E007C084204BF0E2001F0C1FBE8
:100A4000A06BDFF8B81B40688268002A04BFC0684A
:100A5000002804D00020C861DFF82C0C086040F2A8
:100A6000FF70DFF8282C106000208861DFF8900B01
:100A700048610FF21100E0631920BDE81040FFF754
:100A8000DDBD10BD10B5044688002CD560684068F7
:100A9000010018BF804760688168002904BFC068F2
:100AA000002814D0DFF8340C01680029FAD00021A6
:100AB000016060688068010018BF80476068C06896
:100AC000010018BF8047DFF8180CFFF7BFFADFF806
:100AD0002C080FF21501C1634FF00051BDE8104022
:100AE000503001F004B910BDF0B50446880085B05F
:100AF00074D5DFF8085BDFF804680020E861DFF8F0
:100B0000180D2860707E10B10120FFF7F9FD00215B
:100B100071800FF20910317BF06301F0F001317345
:100B200040F60A00002171603080717B01F0F00115
:100B300041F0010171730021A768798000E00F4640
:100B4000796800291CBF0A888242F8D1787B7E60D0
:100B500000F0F000787340F60301706A8068008846
:100B600088421CBF40F60401884202D10020306454
:100B700015E0208B98B104F11800002141804160FC
:100B8000017B01F0F0010173417B01F0F00141F0C4
:100B9000010141737060707B00F0F0007073694672
:100BA000A068FFF77AFA6846FFF786FAA068FFF7B1
:100BB00082FAE8690028FCD00020E861012001F0F9
:100BC000BFFD012808D0787B00F0F00040F0010064
:100BD00078730FF20D00F063A068286005B0F0BDD7
:100BE000012010B501F0ACFD0128DFF8104708D155
:100BF0000FF22900E063DFF8040A0460002020649B
:100C000010BDDFF8741809683220F03400F083FB5F
:100C10002046BDE81040FFF705BD0000FEB50646C2
:100C20000C466004DFF8D45617D5FFF7DFFCEE6AF8
:100C3000376AFFF7E3FCB8070CD45EB1306AB843FB
:100C40003062706830B1B6F91010F06876683A46D4
:100C50000023B04724F480441AE1A00770D52F6B1D
:100C6000002F65D03E1D2020716801E04968401EBC
:100C700079B1C0B268B10A8840F603039A421CBF3A
:100C800040F604039A42F1D1B0681822183001F0FE
:100C90001BFEF0690021F1613168D1B140F0020220
:100CA00097F824000023012807D0022809D004283F
:100CB00004BF00224FF0805306E000224FF00053A3
:100CC00002E000224FF08043B6F90C10B06837689C
:100CD000B847E88E401C0005000DE88605F130009D
:100CE000FFF7E6FCB5F93610B06800F18C02B2F9F6
:100CF0000030994204BF297D002919D1917809B9A2
:100D0000016821B900209070FFF702FD10E0AA6B86
:100D1000126812F1010F0BD0DFF85C271268B1FBEB
:100D2000F2F16830FFF77AFCB0686830FFF77AFCC0
:100D3000286B002824F0020401D044F00204A7E04C
:100D4000A00005F184073FD50022DFF8EC1B3846F0
:100D500000F0ECFFF06840F6C411884218D104207E
:100D600001F0EEFC00281CBF286C002810D0686C35
:100D700070B901F0D7F86864696C286C884228BFA4
:100D8000491E081A000BF060F06800F58D70F060E5
:100D9000287F60B10220ADF800006846FFF756F9E1
:100DA000BDF80800DFF8D816088300202877012056
:100DB000687524F00054287E401C2876002068774F
:100DC000192000F0B6FF63E095F8200024F0080633
:100DD00028B1200703D5002085F8200045E0200732
:100DE00045D5002068750120A877687E10B10020E5
:100DF000FFF786FC0FF2AD00DFF8401BE86300222E
:100E0000384600F093FF297FE87EDFF8847881F090
:100E10000101084240F6090402D10120E8760FE002
:100E2000E86CF0B101F07EF8296CAA6C401A02EB74
:100E30001030A864E96CB0EBC11F12D30020A86485
:100E40002C80687B00F0F00040F001006873002007
:100E50006880287B00F0F0002873002068603D6007
:100E600003E04FF0005100F018F8344610E0A00401
:100E70000ED5AE6A002E1CBF7068002806D0B6F9E9
:100E80001010F068766800222023B04724F4005444
:100E900014B1214600F001F8F7BD05F1500000F053
:100EA00026BF000038B50546880028D5FFF7DBF8D7
:100EB000DFF84844DFF8880AE063A07D18B905F13F
:100EC0003000FFF79FFBDFF8C41700200860022006
:100ED00001F0F8F8112001F009F9287C10B90E2072
:100EE00001F004F90020E083A07E40B10020A0764C
:100EF000042104F15000BDE8344000F0F8BE31BDDB
:100F000030B58DB001F062F8DFF8380ADFF8385AF2
:100F10000168DFF8E84341F00201016001A8FFF732
:100F2000B9FBA878DFF8241A0790002301AA04F17E
:100F30005000FFF787FB01A8FFF7B3FB0020ADF8D7
:100F40001C0001AB2878DFF8F42909901921002052
:100F5000009004F18400FFF779FB01A8FFF79AFBEA
:100F6000E878DFF8EC190790002301AA04F1A0004B
:100F7000FFF768FB01A8FFF794FB0120ADF81C0008
:100F800001AB6878DFF8CC2909901A210020009085
:100F900004F1D400FFF75AFB00230022DFF8B81950
:100FA00004F1F000FFF756FBDFF89409E06301F06D
:100FB000C1FC012818BF002060764FF6FF71DFF8F2
:100FC0009C0901800121217700214172E17661773E
:100FD000E18384F820100DB030BD2DE9F041C74EFB
:100FE0008CB00446B07D0F4690461D4618B9FFF7F9
:100FF00087FF0120B075002F1CBF6760B8F1000F9C
:101000003FD0C4F80880FFF7F1FAF17DB9BB0121A8
:10101000F175FFF7F3FA2DB90FF68C112CC968465C
:101020002CC06D462868206078216868E060287AC6
:10103000207404F1180001F0E5FC082324220021AB
:1010400003A8FFF7D7FA01208DF8240003AA002196
:1010500004F13000FFF702FB08232422002103A83B
:10106000FFF7D8FA099403AB0022DFF8F41804F173
:101070006800FFF7EFFA20460CB0BDE8F081FFF7FB
:10108000BDFA0020F8E738B5DFF8D8580446A87D47
:1010900000285CD0B5F93400B5F93610884207D085
:1010A000B4F98C1002224FF0E043204600F03BF9E7
:1010B000FFF79CFAE97D002938D0491EE975C9B2CD
:1010C000A1BBFFF79BFA0020A875687D40B1002006
:1010D000FFF71EFB4FF0FF3104F13000FFF796FAE7
:1010E00004F13000FFF7BEFA04F16800FFF7BEFA22
:1010F00005F15000FFF7BEFA05F18400FFF7BEFAD4
:1011000005F1A000FFF7B6FA05F1D400FFF7B6FA33
:1011100005F1F000FFF7AAFA0020A8632875207CEB
:10112000A8B1BDE832400E2000F0E0BFFFF766FA3C
:10113000A86BA04204BF0020A86304F13000FFF7B1
:1011400091FA04F16800BDE83240FFF78FBA31BD73
:10115000D0B5FFF74BFA694C617D31B1DFF8081863
:101160000C68FFF74BFA2046D0BDFFF747FA00F0B6
:10117000D9FE10F50030DFF8F42741F10001A2FBA1
:10118000006702FB017721690020321847EB010359
:101190001846D0BD2DE9F84F04460E4692469B46B0
:1011A000FFF724FA554D0246B5F93400B5F936106B
:1011B000401A0005000D08286FF0010944DAA88ED6
:1011C000401C0005000DA886B5F93400ADF80000FC
:1011D0001046FFF713FABDF90000DFF894178210EC
:1011E00000EB5272D210A0EBC200282202FB0018C2
:1011F00004F1680000F084FC08F1040720217E60FF
:1012000087F80EA0C7F800B008F11806BDF8000076
:10121000B881BC60DDE90A23DFF8580710401940A7
:10122000C6E900010020307304F18C06686A40F6BC
:10123000FF7490B1FFF7DAF9074600F067F838B9A4
:1012400000F05EF8384600E01046FFF7D7F909E0F5
:10125000BDF800003080384644E000F057F818B977
:1012600000F04EF8484647E0BDF800003080FFF738
:10127000BDF90021B1706A7DE97F114208D00121DA
:1012800085F820100021E9772977297E491C2976E5
:10129000FFF7B4F9A86A68BB687D18B1192000F09F
:1012A00048FD27E0687F28BBFFF7A0F90646A87F26
:1012B00020B100F035F80120A8761BE07868FFF730
:1012C00053FAE86488B1E86CA96BC968401ADFF882
:1012D000A816096805F1F00400F01DF82046FFF794
:1012E000A1F93046FFF78AF904E000F019F804216B
:1012F000FFF7D3FDBDF90000BDE8F28F6C190020A7
:10130000A88E20180005000DA8867047414605F1FB
:101310002400FFF7D8B9B0FBF1F12046FFF77EB902
:101320003046FFF76BB9F8B506460F4614461D4622
:10133000FFF7A8F9DFF82C26B2F93430DB1BB2F93D
:1013400036301FD5BB42BEBFB2F93430B2F93620B9
:1013500093421FDABB1007EB5373DB10A7EBC301FB
:10136000DFF80C26282303FB0127072297F8241017
:10137000114214D0FFF78AF9072197F82400084298
:10138000FBD109E0BB42A2BFB2F93430B2F936203A
:101390009342DFDBFFF77AF902200021F4BD7A687F
:1013A000DFF8D8158A4202D07A68B2657960C6E95A
:1013B0001445FFF76BF94FF0FF3106F13000FFF7EE
:1013C00025F9D6E91801F4BDDCB50446180008BFBC
:1013D000DFF8A835DDE90667CDE900672046FFF7AD
:1013E000D9FE002803D500204FF00041DCBD0146A6
:1013F000204602B0BDE8D04002224FF0E04392E721
:10140000006208400810044020000E0070B500F093
:101410002FF90546DFF84C650120307704F18C0187
:10142000B6F93400B1F90020801A0CD5B6F93600AF
:10143000B1F900209042BEBFB6F93400B6F93620AB
:10144000904210DB05E0B1F90000B6F93620904279
:1014500009D104F1680000F053FB0020FFF758F9B0
:101460000120F07703E001208870002030752846C5
:10147000BDE87040FFF7C2B824B00000F6FFFF1FC0
:10148000481900200C1A002001E042F002022DE968
:10149000F047DFF8D04482B0606A00908A460026A8
:1014A00003271546FFF7A2F81AF1010F05F001080E
:1014B00081460CD1A06ADFF8C814002819BFA06AC1
:1014C000B0F910A0E08E00F1010A81F821600FFA56
:1014D0008AF2911002EB5171C910A2EBC101DFF841
:1014E0009004282202FB010AA06A824505F0020549
:1014F00027D115B1606A0090666201219AF8240034
:1015000001FA08F108438AF82400FFF7BBF8064601
:10151000B8F1000F14BFDFF86C04DFF86C04FEF7BD
:1015200095FD00F0BFF925B906E000F06CF800F079
:1015300074F800980028F8D13046FFF7A7F8832701
:1015400059E00098504504F1F0081BD1404600F0E6
:10155000D7FA002D11BF6662606A0068606200F011
:10156000A1F900F04FF800F058F80098002818BFD3
:10157000002DF6D183272FE00126832700F042F8C3
:1015800000F04BF8009810B30068504519D1404660
:1015900000F0B6FA00980068009A002111600090EF
:1015A00000F080F9002DE7D1009890F82400009910
:1015B00040F0040081F82400832700F02BF800F0AD
:1015C0002CF8002EDAD1009800680090DAE7832F1B
:1015D0001CBF4846FFF712F8607F10B100F022F8F8
:1015E00009E0DFF8A803E06300F01CF8607D10B9A3
:1015F000DFF84C03E0633846BDE8F687001004408E
:1016000002000040009890F82400009940F0040087
:1016100081F824006846FFF74BB8014604F130001A
:10162000FFF751B8022104F1500000F060BB10B583
:101630000FF274311CC91CC010BD38B500F018F889
:101640000546C848407D58B12046FEF7FFFC0446D9
:1016500000F048F8E0B201280CBF8120022032BD22
:1016600000F040F8012032BD4C190020D021084084
:101670000446FEF7BBBF0A46BA49896B884201D0CF
:10168000032070470DE000005100070600000460D1
:10169000001004400A46B349896B884201D00320F8
:1016A000704700211046C8E770B5AE498A6B90427A
:1016B0006FF07F0410D1487D70B1FEF797FF0546AB
:1016C000B348FEF7C3FC064600F00CF8F0B2012860
:1016D00002D13002001670BD204670BD1C100440BF
:1016E000010007062846FEF789BF70B50E4615466D
:1016F000FEF77CFF83249B491EB1022E0ED005D33A
:101700000FE08A6A42B1896A098A03E0097F19B940
:101710009B49098B298005E0802403E0497D2970DD
:1017200000E00324FEF76AFF204670BDBC190020CC
:101730008A1001EB5272D210A1EBC2018C48282210
:1017400002FB01008068704710B58649097FA1B986
:10175000028B012303FA01F422420AD0A24302833E
:1017600001F10C048B480268A3401A43026008464A
:1017700010BD491C49B20F29ECDB6FF0010010BD10
:1017800038B5FFF775FF75494A7A520702D50B7ACB
:101790009C4210D001220B8802FA04F52B430B80E7
:1017A0000C347C490B68A24023EA02020A600968F3
:1017B00009B96C4A1175BDE83240FEF71FBF2DE92B
:1017C000F041684D0E46A96B8842984618BF032029
:1017D00020D10A2131807260694C60602660204609
:1017E000FFF7B2FF070014D4B77000213046FFF7AF
:1017F00024FF022818BF012805D13846FFF7C0FF93
:101800006FF0010705E004EB870040F80C8C012025
:1018100028753846BDE8F08101010E042DE9F04736
:10182000504E8046B06B80450D46924618BF03204F
:1018300036D1534F3846FFF787FF0446002C2ED48D
:10184000FEF7D4FE8146200200F4706005434FF697
:10185000FC7028405049084338603868FEF7F6FBB2
:10186000C0B2012814D1E80409D500F05BF887F86C
:10187000204097F8210040F0040087F8210007EB92
:101880008400C7F8048040F80CAC0120307504E0F7
:101890002046FFF775FF6FF0010400F003F82046C3
:1018A000BDE8F0874846FEF7A9BE0A462D49896B78
:1018B000884201D0032070474FF6FC701040374A31
:1018C00000211043B9E670B50C462649896B884261
:1018D00001D0032070BD324841784A0707D503780C
:1018E0009C4204D101F0FB01417000210170FEF720
:1018F0007DFE05462046FFF743FF4FF6FC7000EAE9
:10190000042040F0816040F00100FEF79FFB064696
:1019100000F008F8FFF7E6FEF0B201280CBF8120C6
:10192000022070BD1F480122016804F10C039A4097
:10193000914301607047000097080000C70900004C
:10194000E709000000200940F4AC000097090000FE
:10195000FF070000B1070000AD090000601900207A
:10196000610900006C1900200430044000093D00AA
:10197000C00A0020F1EFFF9F24B0000065090000BD
:101980004819002001000204010001041D0C0000A0
:10199000010003040C1004400100030601000406CA
:1019A0006819002008100440FFFFFFFFC409000071
:1019B00001000000DFF800F0F5C00110DFF800F0D2
:1019C00049BA0110DFF800F0E5C10110DFF800F0BE
:1019D00013C10110DFF800F0B5C10110DFF800F00D
:1019E000D5C20110DFF800F0F5B80110DFF800F003
:1019F00021B30110DFF800F095C00110DFF800F00E
:101A00000DA80110DFF800F0BDBE0110DFF800F0F6
:101A100021C10110DFF800F0A5B90110DFF800F0D6
:101A200021BA0110DFF800F0BDC20110DFF800F0AC
:101A300015B60110DFF800F019A70110DFF89002C9
:101A4000007D70476EE038B5FFF7FCFFDFF890527D
:101A50000446A8680021FFF7CDFF6969081AA96943
:101A6000814238BF002084F3118832BD2DE9F04156
:101A7000FFF7E8FFDFF868520446A8680121FFF786
:101A8000B9FF0121A9830021E9836E6929682A68C9
:101A9000871B801A711A884204D20020A88384F31D
:101AA00011882BE084F31188002406E0A619314642
:101AB0000120FFF7A3FF3F1B0446A742F6D2FFF722
:101AC000C1FF8046E88B012804D131460020FFF792
:101AD00095FF0446A96914F1010F08BF084603D019
:101AE000E01B814238BF08468119FFF78BFF0120B8
:101AF00028840020A8832E6088F31188BDE8F08137
:101B000000218182DFF8D411C0684969884204D17C
:101B1000DFF800020068FEF785BD7047808A7047D5
:101B2000704700BFDFF8E8110968EFF3118081F317
:101B3000118870470021DFF8E42101601268101855
:101B4000FFF750BF38B50446FFF7EBFF0546207C92
:101B5000022808D12046FFF759FF002020742946AB
:101B6000A068FFF757FF00F0DBB803681A4003686E
:101B70000B408B4208BF0A4312B1016891430160D8
:101B8000104670472DE9F0431F4691B017F1010F41
:101B900018BF002F00F0B8F80AD06B463A46DFF8BD
:101BA000781108A8FFF73AFF08A80390022002E086
:101BB0000020039003208DF8100006950796DFF8AB
:101BC0005C01006800EB0409FFF7FCFE0290FFF7E0
:101BD000A8FF8046324629462046FFF7C6FF04008C
:101BE00009D0039818B1FFF71DFF0020039088F378
:101BF000118820462AE01FB988F31188002025E0CB
:101C0000FFF7D8FE02990446C1F818D06946484645
:101C1000FFF7E0FE0298FFF709FF9DF81000022889
:101C200004BF0398FFF706FF88F311882046FFF7EB
:101C3000C5FEFFF776FF0446039818B1FFF7F2FEE2
:101C40000020039000F03BF800B1059811B0BDE80A
:101C5000F083F8B50446DFF8C40000680E460719A3
:101C6000FFF75FFF05462068304320603846FFF7E6
:101C7000ADFE10B185F31188F1BDFFF79BFE06465E
:101C80003846FFF7ABFE0746FA69B9692046FFF709
:101C90006CFF786160B13846FFF7B8FE01203874F8
:101CA000F86808B1FFF72CFFB8682946FFF7B2FEC5
:101CB00085F311883046BDE8F240FFF77FBE002073
:101CC0000299886184F311889DF81000704729E714
:101CD000A4010020DFF850008068704778010020E0
:101CE00078010020616280F311882046704738B582
:101CF00004460D46FFF7EBFF616A2943FFF7F2FF49
:101D0000BDE83240FFF772BE04460D4616467047E6
:101D1000E800000028B00000451B00002CB00000C7
:101D200085F3118831BD0000C80100208160426048
:101D30007047102804D3DFF80C101038C1F8000FDA
:101D40007047000000E000E000F077BEFFF7EABE59
:101D5000DFF89411C20744BF01220A60820744BF22
:101D60004FF480720A60400744BF4FF4803008602F
:101D70007047DFF87821C30748BF1160830748BF69
:101D80005160400748BF9160704710B5044600207D
:101D9000D4E90A2347F6906101F0BAF8012928BF77
:101DA0004FF0FF3010BD10B50C4600F0B1F8011D2A
:101DB000201AB0F1004F05D8081BB0F1004F38BF12
:101DC0008C4200D20C462146BDE810400120D0E7ED
:101DD0002DE9F04180460A46D8E90A01D8E90C45C8
:101DE000A0FB026701FB0277A6196F41340C0022A9
:101DF00044EA07414046FFF7D6FFC8E90E67BDE851
:101E0000F081F8B50646FFF7A1FF0446DFF8E05081
:101E1000DFF8E0700120E861FFF79AFFF96A096ACC
:101E2000142088473069B0F5802F34BF0421010C9D
:101E30000120FFF79EFF3A68126823210020904797
:101E4000DFF8B41001200860DFF8B400016821F465
:101E5000E02141F4803101600120286084F3118881
:101E6000F1BD00F05FB810B5DFF89000446800F0F5
:101E700006F86069A169BDE810400847000001202C
:101E800066E7F8B504460D4600F04CF8D4E90A6759
:101E900032463B4601F03CF83DB1A6FB002306FB71
:101EA000013307FB0033C4E90C23F2BD10B5DFF8A2
:101EB0004000DFF85040002101600121C161216034
:101EC0002068FFF7DCFFDFF840100968096A14207A
:101ED0008847206810BD000080B500F023F8000C92
:101EE00040EA014002BD00000420094018200940DA
:101EF000000024438401001080022443E4010020F8
:101F0000002009402C200940B0010010FEE7704776
:101F100009480168426803689942FAD1100C40EA06
:101F20000140704710B5044A136850681468A34212
:101F30001946F9D110BD00000820094020B108233E
:101F400024220021FEF766BB704780B50120009077
:101F500009234FF400720021DFF8040701F090F824
:101F600001BD80B5002301223421DFF8F40601F021
:101F70009AF800B10120C0B202BDDFF8E80680681F
:101F80007047DFF8E016401890F8ED007047002227
:101F9000022904D1012806D140F2EE2203E00128F3
:101FA00008BF4FF47A7210467047DFF8B806D0F8D1
:101FB000DC007047DFF8AC0690F8E60028B1DFF8E7
:101FC000A8064068010018BF004770472DE9F0419E
:101FD000DFF8908608F1E1058AB0A87900285ED183
:101FE0000120A871DFF88066DFF88076307B6871A9
:101FF00001A8FFF7A3FF00200690ADF8140007909A
:1020000001AB00220FF2F54108F10C00FEF722FBB4
:1020100001AB00220FF2A15108F13000FEF71AFBCC
:1020200001AB00220FF2D94108F15400FEF712FB78
:10203000B16801208847DFF8380600787868C0F377
:102040008154707B20B1032C02D10120287003E061
:10205000032C18BF022C16D1022000F09DF8032C8F
:10206000DFF810160CBF4FF47A7042F21070096856
:10207000B0FBF1F108F15400FEF7D0FA08F154007A
:10208000FEF7D0FA05E0012C03D100F063FAFFF768
:102090005CFF386840075CBF002000F07DF80AB0A4
:1020A000BDE8F08110B508B1140001D1022010BDC7
:1020B0008160C26003610146DFF8A80501F00EF8F7
:1020C000002010BD10B50446FEF790FADFF8941515
:1020D000621892F8E8305B1E82F8E830DBB223B970
:1020E0008A680123A3409A438A6066E02DE9F041A3
:1020F0000546FEF77BFA8046DFF86815681890F809
:10210000ED20521E80F8ED20D2B2002A3FD10FF20E
:10211000A050DFF8644500EB85052E786F88300607
:1021200015D52168096A384688472168896A384682
:1021300088472168096B38468847DFF84015012039
:102140000860DFF83C0500688007FAD512E07006E9
:1021500006D501EB87010020D1F80011884709E07E
:1021600021688969384688472168496B384688471D
:102170000228F9D106F03F003F2818BFFFF7B6FF4D
:10218000687800F03F003F2818BFFFF7AFFF4046D8
:10219000BDE8F041FEF732BA10B50446FEF726FA64
:1021A000DFF8C0148A680123A3401A438A606118CB
:1021B00091F8E820521C81F8E820BDE81040FEF7B5
:1021C0001DBAF8B50646FEF711FA0446DFF8945436
:1021D000701990F8ED104A1C002980F8ED2039D1D3
:1021E0000FF2CC4000EB8607387800F03F003F2824
:1021F00018BFFFF7E6FF787800F03F003F2818BFD0
:10220000FFF7DFFF7E883878DFF86C7401060ED5A3
:102210003968C969304688473968496A304688470D
:102220003968C96A3046884700F019F812E040065C
:1022300006D505EB86010120D1F80011884709E099
:1022400039684969304688473968496B304688475C
:102250000128F9D12046BDE8F240FEF7CFB9DFF8FA
:102260001C1401200860DFF8180400688007FAD504
:1022700070472DE9F04F002483B04FF0000A012889
:10228000D04618BF012664D1DFF8D893D9F8DC0016
:1022900001285DD10220C9F8DC00FFF78BFB00901C
:1022A000012000F062F9060054D1FEF7EBF9DFF8E7
:1022B000DC1301900C60012000F042FA012804D1E7
:1022C000002000F0A7F94FF0010ADFF8B813DFF89B
:1022D000B8030C6000681120FFF753FE08B14FF0FF
:1022E00001081020FFF74DFE08B148F002080F204A
:1022F000FFF747FE08B148F004080B20FFF741FE46
:10230000DFF8746320B13168096B4FF4806088474F
:102310000A20FFF736FE20B13168096B4FF4816067
:102320008847DFF85813DFF86873DFF868B30120D7
:10233000086048F02000316889698847DFF8581341
:102340000120086099F80800C00707D5012416E0AD
:10235000042673E00120C9F8DC006CE0584600F068
:10236000DFFE0546042DF9D0012D04D1326A5268F2
:102370000321584690473868800880003860002064
:1023800000F0D6FEC04800683068806B804754B9C2
:10239000012D04D1326A52680121584690473868AD
:1023A00040F0030038600120B649086040463168BB
:1023B000496988470B20FFF7E4FD20B13168C96AFD
:1023C0004FF4806088470A20FFF7DBFD20B13168B9
:1023D000C96A4FF481608847A8490120086000203D
:1023E000AD4908600320C9F8DC003168496B4046FC
:1023F00088470128F9D1042000F0B7F8A34901204B
:102400000860A1480068A54800688006FBD5BAF1BD
:10241000000F1CBF012000F0FDF800F0D3FF0820E2
:1024200000F0A3F806460120C9F8DC000198FEF789
:102430002DF900F04CFF0098FFF7C0FA3046BDE8D8
:10244000FE8F38B50446FEF7D1F80546214685488B
:1024500000F058FE28464CE030B5002401288BB02F
:1024600004D021D303281DD018D31DE001A8FFF705
:1024700065FD7C4D8A490694ADF81440079401AB84
:10248000012205F17800FEF7E5F800940023854A63
:102490002C2105F19C00FEF7D9F805E000F0AAFF19
:1024A000044601E001F04CF820460BB030BD0000BE
:1024B00000F053B938B5FEF799F80546694890F829
:1024C000E000012410B1FFF74CFD04462846FEF75A
:1024D00095F8204632BD38B5FEF788F8614D0446C0
:1024E00095F8E00020B100F07EF9002085F8E000CA
:1024F0002046BDE83240FEF781B80000704700007A
:1025000010B582B0042000F01BF9022818BF032880
:1025100007D100F01FF8FFF718FDBDE816400220B4
:10252000D0E56148534900684E4CC0F38150032800
:102530000CBF4FF47A7041F288300968B0FBF1F1BA
:1025400004F15400FEF76AF804F15400BDE81640A7
:10255000FEF768B8032000901C234FF04052002182
:102560003F4800F08DBD0020704770B504463D4ED9
:10257000304600F0A9FD002598B9304600F0AAFDCC
:102580000646B068204207D03269F3680021204631
:1025900098470546012D05D0304600F09DFD060008
:1025A000EFD1284670BD414901280CBF40F2FF70B1
:1025B000002008600020704770B5FEF717F8294E1C
:1025C000294D044696F8E00028B100F00CF968B1F6
:1025D000002086F8E0000220AD68A84706461020DB
:1025E000FFF7C3FF8EB10320A8470EE02149096819
:1025F0003220B0FBF1F101B9012106F13000FEF704
:102600000DF806F13000FEF70DF82046BDE87040E9
:10261000FDF7F4BF38B501281ED100F091F801286C
:102620001CD000F0D6F80F4C1249012084F8E000CD
:1026300032200968B0FBF1F505B9012504F130003D
:10264000FFF75EFA294604F13000FDF7E7FF04F1D9
:102650003000FDF7E7FF01E000F0E7F8002032BDB1
:1026600000A00C409C090020B4AC0000B03F00501A
:102670000720002024B00000B801001028200860C6
:1026800028200840000222432C2009400C40094029
:1026900024220840004003408001044314100940F4
:1026A000713600004D340000B43F0050000004605B
:1026B0008F3F00008F3F01008F3F02008F3F0300DC
:1026C000903F00018F3F0101903F0002903F0003C7
:1026D0008F3F01048F3F00058F1208048F3F0004D5
:1026E0008F3F0006513F00007F3F01003F3F040045
:1026F0003F3F02003F3F01007F3F020070B50446AC
:10270000E00782B00D46614E05D5A8B200900023C7
:10271000012200F011F8A00705D5A8B2009001230E
:10272000022200F009F8600705D5ADB2009502233A
:102730000C2200F001F873BD0021304600F0A0BC6F
:102740000146042907BF1D234FF0C0421C234FF050
:1027500080524E48342100F0A6BC70B50546FFF704
:10276000D7FB4B4CA168401A4FF47A714843060CD2
:1027700001F04EF82169401A48BF4042711940F6F5
:10278000B932914207D2062805DAA068E168814291
:1027900001D3226852B93F494A68D2074FF4FA6020
:1027A00016D40868C0B27D21484308E0081A3A49A7
:1027B0004843000C00EB9000904238BF1046C828F8
:1027C00001D2C82070BDB0F57A6F88BF4FF47A602F
:1027D00070BD80B501210320FFF790FFFFF798FB44
:1027E0002B49886001BD80B50120FFF7A9FF0128B2
:1027F00019D0002301223421244800F054FC98B160
:1028000000F026F8FFF784FB21498B680A68C8604E
:10281000A2EB9202C01A204B5843000C0860904271
:1028200038BF10460860012002BD10B5002103200A
:10283000FFF764FF0120FFF783FF08B100F008F8FD
:10284000134CFFF765FB606000F0E2FF206110BDF4
:102850001248006800F0F0BF10B511490A6811492C
:102860000968140424161B384443E41004EB224482
:10287000120600FB00F3121609065A4358430916C4
:1028800004EBA222484302EBA04010BD00A00C4084
:10289000E41F0020AC3F005040420F0080000010B9
:1028A00090130050A410005062B38B0708D0521E42
:1028B00011F8013B00F8013B00F024808B07F6D1B2
:1028C000830740F0208000BF103A07D330B4B1E84E
:1028D0003810103AA0E83810F9D230BC530724BFA2
:1028E000B1E80810A0E8081044BF51F8043B40F8D4
:1028F000043BD20724BF31F8022B20F8022B44BF3F
:102900000B7803707047083A07D3B1E80810083A0B
:1029100040F8043B40F804CBF7D25307E4E700004B
:1029200030480068000C00F00700052828BF4FF071
:10293000FF3070472C490A68C2F30F324BF69A13E6
:102940009A424FF0FF3007D10868000F0B2801D1E1
:1029500004207047002070474BF6BE118A4201D117
:10296000012070474BF641318A4201D10320704764
:102970004BF620318A4208BF022070471A48F8B54A
:102980000068050F19480068C6B2802E28BF0026CF
:10299000FFF7D0FF4FF0FF3406F10A0730B10228ED
:1029A0001BD012D3042819D017D318E0012D12D050
:1029B000032D06D0072D06D0082D08BF06F11604FA
:1029C0000DE014240BE0152409E025B1022D08BF09
:1029D00006F1140403E00A2401E005B93C4660B2A4
:1029E000F2BD00009412005018130050A0100050C7
:1029F00080B5FFF79FFF18B9FFF7C0FF162800DA70
:102A0000FEE701BD002200F033BF000038B51446D8
:102A10000D1800F0D3FC401E8041C00FDFF84414B5
:102A20000A68002AFCD02C6001220A6000281CBF22
:102A3000BDE8314000F0C6BC31BD38B5DFF8280430
:102A4000DFF82854046814F1010F08BF0024FFF7D1
:102A5000CFFFDFF81C14002008600120DFF81414F9
:102A60000860DFF81414086028680028FCD1DFF83B
:102A70000C04DFF80C24416812688908890041F0D1
:102A8000005141F00401520748BF41F001010BD44D
:102A9000026812F0030F07D041F00302426002689F
:102AA00002F00302032AFAD14160DFF8D80300687C
:102AB00028B1DFF8D4030068204600F031F8DFF8D1
:102AC000CC13DFF8CC2300200860DFF8C8030168CE
:102AD0006FF31B4111430160DFF8BC030168C1F3D0
:102AE0000131012907D10168DFF8B023114041F419
:102AF00000320260016028680028FCD131BDDFF897
:102B0000A01382B20A60C0F30740486001208860C9
:102B1000DFF8900300680028FAD000208860704732
:102B20002DE9F0470446E04882B001210160DF4909
:102B300009680029FBD0C021DFF87483DD4EDE4D2B
:102B4000C8F80010B16889075DBF7168090C41F0D1
:102B5000F0017221297000210163F768D7480068ED
:102B6000C0F3046000F0D0F93917491C0818162882
:102B7000A8BF152004DA6FF009018842B8BF0846E3
:102B800000F01F0040F4F8502883CD4DCD48006878
:102B9000800748BF47F04067CB48C7F3C06181F06A
:102BA00001010160BA03C7F3806181F00101816016
:102BB0002868C0F38361C0F38F2020D43A04121632
:102BC0004FF6FF7307E0400804D11846490804BFD8
:102BD00001210120521C002AF5D4012A0FDB4000FC
:102BE00040F00100B0F5803F21BF0120490041F0D5
:102BF0000101102924BF0F211846521EEDE7DFF80E
:102C0000CC9240EA0142182100F07CF9286829683A
:102C1000C0F3870001F0030140EA01200090002387
:102C200040F2FF322C21484600F02AFAE86A82047A
:102C3000920C1C2100F066F9686A20F0033214211E
:102C400000F060F9286AA24901EA0002102100F0B0
:102C500059F9A86AB368DB07C0F30352C0F3034114
:102C60000BD473684FEA035C02EB2C721B0482F3F3
:102C7000040201EB237181F30401090441EA0251CA
:102C800082B20A43222C24BF00F0804002430C2170
:102C900000F038F90120222C03D3E86B000F00F07C
:102CA0000100DFF830A2400040F020008AF8080060
:102CB0000120222C03D3E86B400F00F0010000221A
:102CC00040F01000202C8AF8080007D3A86CC10C33
:102CD00001F44071C0F3845040EA0102282100F061
:102CE00011F90020202C03D3A86C000D00F0030084
:102CF000400040F060008AF80B000020222C03D333
:102D0000E86BC00E00F00100C00040F080008AF8BF
:102D100000000020222C03D3E86B400D00F03F00A0
:102D200080006D4940F47C40202C08806B4A0AD317
:102D3000A86C0203810A02F47C1242EA815100F07D
:102D40000F0041EA0032082100F0DCF8644C4FF437
:102D500080002060B80C00F00300012802D0022897
:102D600028D024E0E86B810321D44FF48041216016
:102D7000430A5C49D1F8022022F08F0203F080035D
:102D80001A43C0F303331A43C1F80220C0F30323EC
:102D9000D1F80120120943EA0212C1F8012000F023
:102DA000E7000A6822F0E7021043086002E04FF0F3
:102DB000004020604FF4007020644B49E86BDFF85E
:102DC0002C91C00C00F0030040F030000870B80DEA
:102DD00010F0030003D0022826D008D326E00121FA
:102DE0000420FFF78BFC4248FFF789FE22E0012018
:102DF000FFF7A6FC074639460420FFF77FFC0420B6
:102E0000FFF79EFCB842FAD136683002000AFFF79D
:102E100076FED9F814301B684FF060220721300E7F
:102E200098474FF480602060032100E002210420D5
:102E3000FFF764FCE8692F4900F03F00087047F68F
:102E400018002D4908802D480068D9F80010C9687D
:102E5000022088474020C8F8000001202849086067
:102E6000BDE8F38700800C401C1300500C00684242
:102E7000840460425C600C4008220443004003402C
:102E8000B03F005080012843000120438C210840BE
:102E9000000039014820034004000940FFFFFCFC0A
:102EA0003C600C4084088C4310100940940222437B
:102EB00000600C40A83F005056620840B812005015
:102EC00050130050000009400000204300A00C40B7
:102ED000FFFFFC0041A10C40DCA10C4000803F4002
:102EE00040A00C400A60084008A10C40A00100105E
:102EF000BD3786000BB00C4070B00C402C20094050
:102F000094046042484681E51628A8BF20387047DF
:102F10001B4213D1094236D12AB18446B0FBF2F0EC
:102F200002FB10C2704700F0BDBCFCD3002200239E
:102F300070470B000200002100207047904271EBA7
:102F4000030CF6D370B5B1FA81F4B3FA83F52C1BF8
:102F5000A340C4F1200532FA05F63343A2405FF0E6
:102F60000046E64002E05B085FEA3202841A71EB39
:102F7000030524BF204629467641F4D302000B0006
:102F80003000002170BD012ACFD970B5140C20D0BB
:102F9000B1FA81F4B2FA82F5C4F120046419B4F1F3
:102FA0002006D6D3B2405FF00044F440002502E092
:102FB00052085FEA3303C61A71EB020E24BF304693
:102FC000714664416D41F3D302000B0020002900DB
:102FD00070BD0C46B1FBF2F102FB11452D0445EA30
:102FE0001045B5FBF2F402FB145580B240EA0545EA
:102FF000B5FBF2F002FB105240EA044070BD000045
:1030000070B504460D46164600F0D8F9401E8041C2
:10301000C00F1A490A68002AFCD0012E02D0022EE5
:1030200002D003E0257002E0258000E02560012247
:103030000A6000281CBFBDE8704000F0C3B970BD35
:1030400038B504460D4600F0B9F9401E8041C00F66
:103050000A490A68002AFCD0012D02D0022D02D0B4
:1030600003E0247802E0248800E0246801220A605A
:1030700008B100F0A7F9204632BD000000800C40E6
:1030800010B500EB4100102B144600F5007002D380
:10309000103B001D240C0299994041EA0441BDE80F
:1030A00010400422ACE738B51D460818102D144610
:1030B00002D3103D801C240C0221FFF7C1FF04EA5B
:1030C000000188B2E84032BD006800280CBF012032
:1030D00000207047006870470068704738B50446A4
:1030E0000D4600F0E0FB00212960616869606168BD
:1030F000002914BF0D6025606560FFE7BDE8324020
:1031000000F0D3BB0B684A68002B0CBF42605A60CA
:103110004A680968002A0CBF01601160704700000E
:103120000068010701D50420704700F003007047D4
:103130002DE9F84F06469248924C0068924D800760
:1031400004D50820A87191482060BEE000F060FB23
:1031500080468F48006800900027001700F10109A1
:103160000098800208D4C8F13E00C0100928A8BF0A
:1031700008208145B8BF814686480068C0F30460D6
:10318000FFF7C2FE824684480068C0F30440FFF7A0
:10319000BBFE09EB0A011629A8BF152104DA6FF05E
:1031A00009029142B8BF114601F01F027B4B42F465
:1031B000F8521A807A4A126812F0030F18BF0127DA
:1031C000520748BF47F002070EB147F0040795F9D0
:1031D0000720A8EB0202052A02DAAA7997425CD0FE
:1031E000A8F10F0C0026BCF1000FB64607F0010253
:1031F00007F00403DFF8AC9123D40CEB0C1C4FEA6E
:103200002C2EBEF1080F28BF4FF0070E7646072E72
:1032100028BF062609EB860A59F82660DAF804A0CA
:10322000AAEB060A5FFA8AF613B1CAF3072B5E44CB
:103230005FEA877B44BFCAF3074B5E440AB106EBE3
:103240001A6659F82E905FFA89FA13B1C9F3072369
:103250009A44BB0744BFC9F307439A440AB10AEB37
:10326000196A401AACEB0E220099AF71724380329A
:103270000128B8BF01203423C9B258430AEB1222F7
:103280004843B0FBF2F0B0F5803F28BF4FF6FF7027
:1032900008F30708A88085F8078043480068A988D4
:1032A000286000201F2904D21F21A98004E04908BA
:1032B000401CB1F5007FFAD20F39090940EAC1007C
:1032C0003A490843206000206060BDE8F18F10B5E6
:1032D0003748006884B224B300F09AFA2A4991F979
:1032E0000720904205DA6FF07F029042B8BF104687
:1032F000C8718888844201D28C8010BD2A4A126825
:103300000B68D21A921C202A28BF1F22231A5208A7
:1033100023FA02F42018B0F5803F28BF4FF6FF7063
:10332000888010BD2348026802B9704710B5224B4F
:10333000986800F04061B1F1406F20D010490C68EE
:10334000A4071CD45C68A40719D40C681B68C3F3D9
:1033500003531C331B0114F0050F05D09A420ED203
:1033600024F00500086010BD934208D2020158BF46
:1033700044F00104400158BF44F004040C6010BD47
:103380000000094030100940F81F0020FDFDA40096
:10339000B43F0050B81200503C1100506E6208401B
:1033A000242208409C1300500820094000E7A48014
:1033B0003410094028500940AC3F0050EFF3108012
:1033C00072B67047EFF3108062B6704710B50C18F4
:1033D000FFF7F4FF401E8041C00FDFF8D8130A68E2
:1033E000002AFCD0246801220A6008B1FFF7EAFF36
:1033F000204610BD38B5DFF8C043DFF8C013207891
:10340000897B002508430AD0FDF7F0F8A178002950
:1034100006BF0121A1700125FDF7F0F80DB10020D4
:1034200032BD0220FEF7B8FE0E20FEF7CAFEDFF81E
:103430009003016809B1012032BDDFF888234021E3
:1034400011600121C1610020607032BD70B5DFF8EC
:10345000740382B0002101604821C160DFF8680375
:1034600000F1D804A17A002967D00129DFF85C2394
:1034700028D110684BF2F5214843050AD44800686A
:10348000C0F38140012806D100F0C2F9FFF7E4F94A
:10349000684305EB9055607B10B10020607305E038
:1034A000CC480068000215EB10204508CA480560AA
:1034B000290C416001218160C048807B00283AD0FE
:1034C000052039E0022909D11568284600F0F2F8F4
:1034D000A5F2FF5003282ED308202DE003292CD17C
:1034E000116800F1B805A1F5C0612868E9610028FC
:1034F00048BF4042002948BF49428842A8BF002037
:1035000018DA6868B54E80B2009008234FF47F4205
:1035100030213046FFF7B4FDA86800F067F90421B8
:103520003046FFF7ADFDA86900F066F93046FFF7B9
:10353000A7FD012020700B202073BDE8734000BF61
:103540002DE9F041A04CDFF89482A54FA54E9D488F
:1035500004F1E10582B0E9784A1E0B2A5BD8DFE866
:1035600002F0062233465B33465B3346636E9E4968
:1035700009680968202088470F20F860072341F672
:103580001D5038614FF4C0720220009000F06BF8BB
:1035900007234FF4C07200214046FFF784FD01204D
:1035A0003060022044E00120F861287800281DBF27
:1035B0000020306103200620E870032038600020DE
:1035C00070607068800734D4E878032804D1022042
:1035D00000F046F8042007E0002000F041F8E87809
:1035E00006280CBF07200A20E87001201AE00429F1
:1035F00003D12021B961012105E00122BA610A2924
:103600000CBF032102216970002139600821C160CB
:1036100001600120386021E005290CBF0620092047
:10362000E8700020706004E00020306070600C20C2
:10363000E87004F17800BDE8F641FCF7F3BF002123
:10364000016001205E4908600E20FEF74FFD022058
:10365000FEF738FD0120E8700020A870BDE8F38176
:1036600000900523602200214046FFF709BD0000BD
:1036700055495C4891F8E410891E0A2919D8DFE8F9
:1036800001F0060A0E180A0E180A0E181200016838
:103690008907FCD50DE041688907FCD409E0416841
:1036A0008907FCD505E001688907FCD441688907D2
:1036B000FCD445E7F8B50746484C30212046FFF7D3
:1036C00085FE414E06F1B805C0F30720686004216D
:1036D0002046FFF77BFEC0F38440A86020212046EF
:1036E000FFF774FEC0F38120A861B7F5C0602860C1
:1036F00002D186F8D800F1BD296996F8D8202AB9F8
:103700006A68A968EA60E861AA696A61E8690028EC
:103710004CBF6FF00102022200EB40001018421073
:1037200000EB927001EBA0006968E960012810DAF3
:103730006A69032A04D1153001281DDA01201BE033
:103740000B300128B8BF0120491E48BF0021E960A5
:1037500007E01F2812DB6A692AB915381F28A8BF9D
:103760001E20032109E00B381F28A8BF1E20491C7A
:103770004029A8BF3F21E960002169612861082331
:10378000E86880B200904FF47F42302100F03CF8AE
:103790000120009011234FF4003200F034F8286922
:1037A00000F024F800F02FF8686900F025F800F028
:1037B0002BF8F1BD00800C407D0A0020B4AC000065
:1037C00004800C402C500C409C09002008400C4008
:1037D000B43F0050102009403C600C4000A00C4059
:1037E00000400C4034600C40A001001080B20090FA
:1037F00012234FF4F802704780B200900A234FF46E
:1038000040622021704704212046FFF739BC0000A8
:103810000748084A816812780068C90352B2A0F5C7
:103820004070C9135043A1EB201080300012704744
:10383000285009400C13005070B50446FFF7BEFD38
:10384000451EAD41ED0F074E30680028FCD0A04763
:1038500001203060002D1CBFBDE87040FFF7B2BDF5
:1038600070BD000000800C4062F30F2262F31F4223
:1038700000B500BF130096469446103928BFA0E853
:103880000C50FAD85FEA417C28BF0CC048BF40F812
:10389000042BC90728BF20F8022B48BF00F8012BD2
:1038A00000BD00007047FCF7A1BEFCF7A7BE0000FA
:1038B000DFF800F0D9C20110E0B50821ADF8001022
:1038C0000190042100F00FF8002814BF0020029896
:1038D0000EBD00B583B00821ADF8001001900521A0
:1038E00000F001F807BDADF802106846DFF8981C3B
:1038F0000968084710B5DFF8944C0020207004F1E7
:10390000100001F09AF8A06004F11C0001F095F895
:10391000E060DFF87C4C207801F053FA207801F069
:103920004DFA0FF248021521002001F068FA4FF01D
:10393000FF3001F061FA4FF0FF3001F00AFA01F0B8
:10394000B7FFBDE81040002038B5DFF81C4D00205F
:103950002070A06940B10568FFF7BBFF2800FAD1CD
:10396000A16900200860A06131BD0000534E5000E5
:103970000000000000000000000000000000000047
:10398000000000001CB5044620791E2813D1608871
:10399000C1B2000A01EB0020ADF8050002236078F7
:1039A0008DF8040001AA0DF1050000908921552031
:1039B00002F002FA17E07F2815D161888DF8001017
:1039C00004F108006288120A8DF801206B46028813
:1039D0008DF8022004220088000A8DF803000021DF
:1039E000202002F040FA217904F1080001F051FC96
:1039F00013BD012800D0704710B5DFF86C4C82B0C1
:103A00006078122803D0182808D0FE2820D1A06999
:103A100098B100F01EF8A088FFF796FFA06960B18A
:103A200041790091038AC2884169C06800F051FD64
:103A3000A06900210171406908E06078A38962886B
:103A400021690090A06800F044FD206901F02AFC83
:103A500013BD00218DF8011087208E218DF8000004
:103A60008DF802106B46032200214FF4004002F053
:103A7000FAB9F8B5DFF8604CDFF8605CDFF80C7B72
:103A800020E07069A8B17068022229461BF0B8FADC
:103A900028B17068022221461BF0B2FA30B9706971
:103AA0004068B0F5801FA8BFFFF713FF7069FFF7EC
:103AB00010FF7068B0F5801FA8BFFFF70AFF3046FF
:103AC000FFF707FFB86800F0E5FF0600D9D1012035
:103AD0007870F1BDBFB504460F4603A940F20E3021
:103AE0001BF007FCDFF8805B2878002879D00020E5
:103AF00028702078932805D100202861A888FFF736
:103B000023FF6EE080B168788DF8040001A9A868F1
:103B10004089ADF8060020788DF80800A88801F0EB
:103B20002BFA002028615CE06888B8424ED36878A0
:103B300008283DD00A2802D00C281CD046E0A888CE
:103B400000233A460B2101F095FB029010B900F0DA
:103B50005AF838E000F04FF8A88801A901F012FAED
:103B600000283ED000218DF8011087200121FFF7A9
:103B700075FF0B2118E0A88800233A460D2101F0BB
:103B800079FB029010B900F03EF81CE000F033F829
:103B9000A88801A901F0FCF918B300F025F88DF808
:103BA0000200FFF75FFF0D2101A801F072FB18E092
:103BB000A8684389D4F80710A8883A4601F0E7F8C6
:103BC00078B100F011F88DF8020008E000218DF8BE
:103BD0000110872084218DF800008DF80210FFF776
:103BE00041FF002004B0B0BD872100228DF80010F5
:103BF0008DF801207047ADF80470D4F807100298D2
:103C00003A46FEF751BE872000218DF800008DF85E
:103C10000110704700BF30B5DFF84C4A83B02178FF
:103C2000002979D0017893290ED081B161788DF87F
:103C30000010A1684989ADF80210694600788DF836
:103C40000400A08801F098F900F068F864E0A18809
:103C5000B0F80100884207D000218DF801108820BB
:103C60008421FFF7FBFE57E06078122804D0182863
:103C700008D0FE2834D035E000202070084601F03E
:103C80008DF92FE0A5692DB300E00546287910B91C
:103C900028680028F9D12879002804BF286800285E
:103CA00009D12070084601F07FF9206901F0FAFA85
:103CB00000F034F816E0182000902B8AEA88696931
:103CC000E86800F006FC00202871686901F0EAFA53
:103CD000012006E000202070084601F065F901E0AF
:103CE00000202070A06841680A78497802EB012121
:103CF00089B242F6021291420CD1C0680168227D5D
:103D00008A70A08808806178FE2903D0A16849895B
:103D100001F09EFA0020206100203EBD00202061BD
:103D2000A08811E62DE9F843804689461546872686
:103D300005B12E700DF1010100F0A9F99DF8010007
:103D400020B9DFF848787878012804D10DB18620B1
:103D50002870862039E00120787000F01FF90400F7
:103D600032D000F0F6F80220207098F80000012808
:103D700002D002282BD02DE0DFF8600900F065F8B2
:103D800008202082FFF798FD606198B36A46494693
:103D900008F1010003F042F860B362699DF8001079
:103DA0001170616948606069E06001F0C7F8B8802F
:103DB00022463878401C38700021B86800F044FE74
:103DC00068B1002605B12E703046BDE8F283DFF8F9
:103DD0000809D3E70DB1842028708420F5E76069D5
:103DE0004068B0F5801FA8BFFFF773FD606908B198
:103DF000FFF76FFD00F077F8E6E711B581B000F04E
:103E0000CDF804001DD000F0A4F802202070DFF8E7
:103E1000480B00F01AF801202082FFF74DFD606189
:103E200068B1E06001A861690278DFF8300B0A70C0
:103E3000224600F018F830B96069FFF74AFD00F03B
:103E400052F8002016BD012016BD606001202072CE
:103E50000020608170479DF8000038707C603E72E1
:103E60003A46DFF8F80A8068002100F0EDBD18B589
:103E70000FB481B000F092F804002FD000F069F880
:103E800002202070DFF8D80AFFF7DFFF062020822B
:103E9000FFF712FD6061F8B1E06001A960690A787E
:103EA000027002A9421C0B78137003A9821C0B78C4
:103EB00013704B78537004A9021D0B78137008A976
:103EC0000A7800F8052F4A7842702246FFF7C9FFAA
:103ED00030B96069FFF7FDFC00F005F8002000E054
:103EE000012006B010BD2046F3E42DE9F0418046E4
:103EF0000C4615461E4600F051F8070024D000F08D
:103F000028F8022038703C82DFF8580A786008F000
:103F1000CF003872002078812046FFF7CDFC786111
:103F200078B1F8602A4678693146FEF7BDFCDFF8C3
:103F30002C0A80683A46FFF797FF38B97869FFF78F
:103F4000C8FC3846FFF7C5FC002000E00120BDE8B2
:103F5000F0811821FCF7C2B8F8B514461D4601F0EF
:103F6000CF0600F01BF8070014D0FFF7F2FF6A46F7
:103F70002146284602F052FF040008D0FFF76BFFED
:103F800050B9B4F5801FA4BF2046FFF7A2FC384605
:103F9000FFF79FFC0020F2BD0120F2BD18208BE44A
:103FA000F8B500F0CF060C461546FFF7F7FF0700FF
:103FB00014D0FFF7CEFF6A462946204602F02EFFB6
:103FC000040008D0FFF747FF50B9B4F5801FA4BF25
:103FD0002046FFF77EFC3846FFF77BFC0020F2BD51
:103FE0000120F2BD38B50546FFF7D8FF040037D0F1
:103FF000FFF7AFFF02202070DFF86C09606005F06A
:10400000CF0040F00100207200206081DFF85C5991
:1040100028788000001D2082208AFFF74DFC606117
:10402000E0B1011D016000216069E0606069001D70
:1040300007E0FF2220F8212000EB810300229A7084
:10404000491C2A789142F4DBDFF810098068224687
:10405000FFF70AFF30B96069FFF73BFCFFF743FF4A
:10406000002032BD012032BD10B582B0044600F000
:104070000DF89DF80000002802BFDFF8E008407846
:10408000012802D086202070002016BD694640F22B
:104090001A301BF02EB970B582B0054687200E4647
:1040A00014468DF8000024B10020A4F801008720F8
:1040B00020706846FFF7D8FF40B9FFF7DAFC14B16B
:1040C0009DF8000020709DF8000076BDB5F8010055
:1040D000C0B2FFF792FE10B9FFF7CBFC0BE02978D6
:1040E000A888AB1D3246FFF737FF30B9FFF7C1FC98
:1040F0000CB187202070872076BDDFF8600801783A
:10410000891C01705CB18288C9B28918491ECAB283
:1041100001F47F418918A4F80110002121700021C9
:104120008170002076BDF0B583B0044687208DF8FD
:1041300004000D46207800277021084268D101A8AC
:10414000FFF792FF00285ED0DFF810682078B17882
:10415000014201D08620FEBDC0070ED5D4F8010073
:10416000C11C00780222FFF71BFF00284BD000F093
:104170006CF86980401C012730702078800710D5CA
:10418000D4F80500C11C00781022FFF709FF0028B1
:1041900039D000F05AF805EB4702401C51807F1CD3
:1041A0003070207840070BD5D4F809000078FFF76D
:1041B00019FF002827D000F050F840F00400B0703C
:1041C0002078000710D5D4F80D00B0F80510009144
:1041D0000379428841780078FFF749FE98B100F0F2
:1041E0003CF840F00800B0702078000627D5D4F8DD
:1041F0001100D0F80530B0F80320B0F801100078B5
:10420000FFF773FE40B9FFF734FC9DF80400FEBDD4
:10421000FFF72FFC8420FEBD3078B188401C307041
:10422000FFB2C0B24018401EC1B200F47F40401837
:1042300005EB47014880B07840F08000B070002066
:104240002870207868700020FEBD3078B188411851
:10425000CAB201F47F41891870473078B188401C98
:104260003070FFB2C0B24018401EC1B200F47F40AF
:10427000401805EB47017F1C4880B07870472DE956
:10428000F04782B0044600270CB9842072E0A4F8FD
:104290000170A4F8037087202070FFF7F7FE9DF8E7
:1042A0000000002802BFDFF8B4566878012802D069
:1042B000862020705EE01020FFF7FEFA060064D032
:1042C00028780001FFF7F8FA5FEA00085AD028784A
:1042D0008000FFF7F1FA5FEA000901D140464FE0A4
:1042E000C6F80080C6F80890A888B0812978081818
:1042F000401EF081317113E0A888381829F8270092
:1043000009EB8701BAF8100048801022514608EBEB
:104310000710FEF7C9FA50467F1CFFF7DAFABFB262
:10432000A86800F0B7FB5FEA000AE5D1E86832460A
:10433000FFF79AFD00B3AA88D1B2100A01EB002062
:10434000A4F8010029780FF230638818401EC2B229
:1043500000F47F408018A4F8030010220020687049
:10436000404600F0F9FC207008B1FFF782FB002006
:1043700028702078BDE8F6874046FFF7AAFA48463D
:10438000FFF7A7FA3046FFF7A4FAFFF772FBF0E752
:10439000F8B5DFF8C8750446F8680D461646FDF70F
:1043A0001DFB01E0FFF784FAF96888421FD081689D
:1043B0008A89944224BFCA89A242F3D308688A68D2
:1043C0000979A0B1002310E000EB0317B7F80AC089
:1043D000A44504BFFF682F6032F82370A74203D1C1
:1043E00002EB83077F8837805B1C8B42ECDB00206D
:1043F000F2BD30B583B00C4600210191154600880E
:104400006A4601A9FFF7C4FF38B90198C4F8030050
:10441000BDF80000288000203EBD88203EBD7CB550
:104420000446002001900D46164620886A4601A9E0
:10443000FFF7AEFF98B9BDF8000008B9862076BD39
:10444000A84201D2842076BDD4F8021001982A46F1
:10445000FEF72AFA2088A6F80100002076BD882001
:1044600076BDFEB50A9C0A2C1CBF0C2C082C0546F8
:104470000E462BD17C4F387840BB01A940F20E305C
:104480001AF037FF70897C70C2B201A9000A02EBF2
:1044900000204880BD80BE6008230898C2B2000A90
:1044A00002EB0020888016240998C2B2010A02EBB0
:1044B0000121ADF80A107880012101A8397000901F
:1044C00000228721552001F077FC00E011242046CE
:1044D000FEBD2DE9FE4304460D006068017840787A
:1044E00090461F4601EB00294BD00720FFF7E4F967
:1044F000060046D0314640F20E301AF0FAFE6089CE
:10450000B0701FFA89F26089000AF07042F6021159
:104510000A988A421ED1544901220A700D61A1F8FD
:10452000028048708F818C603271701D2A78027011
:104530006A784270287808754878FE2804BF0869B0
:10454000FFF7C7F90096072300228B21552001F0C1
:1045500033FC11E052280CBF00200120307177712C
:10456000380AB0710295CDF8048000960723002226
:104570008821552001F043FC3046BDE8FE43FFF79B
:10458000A8B9BDE8F783000094040020DC1D0020DA
:104590003C0600202DE9F04F83B082460C9D9946E1
:1045A00009EB0500B0F5007F8B469046C8BF182088
:1045B00057DC2D4E3078012808BF0E2051D00D9CBD
:1045C000B769122C07D0162C23D0182C09D0522CE6
:1045D00014D0FE2C0DD127B1FFF73BFAB088FFF7BE
:1045E000B3F9019400954B4642465946504600F0B7
:1045F0003DF8522C0CBF0020162032E000942B46D0
:104600004A4641465846FFF764FF404600F04AFEDE
:10461000EFE747B100E0074638680028FBD1FFF715
:10462000BDFC386002E0FFF7B9FCB06138B100F0C2
:1046300057F80582C0F80CB0A0F808A0D9E7872089
:104640008DF8000000218DF802008DF801106B46F6
:1046500003224FF4004001F006FCB088FFF774F924
:104660001320BDE8FE8F0000C01D00202DE9F0479B
:10467000BF4F089CBD6906468A46904699466DB173
:1046800000E0054628680028FBD1FFF787FC28607A
:1046900000F026F80482C0F80CA0068101203870D2
:1046A000099DFE2D08D14846FFF706F938614A46B4
:1046B0004146FEF7F9F801E0C7F81080A7F802902C
:1046C0007D70BC81C7F808A0BE800121BDE8F0471D
:1046D000022001F044BB0000E8840000E4840000F4
:1046E00000210160C0F8148001210171A0F806903A
:1046F000704710B514460278012A02D0022A06D06B
:104700000BE0821C4078C9B200F079FB06E0821C05
:104710004078C9B201F0D4F800E0892020702078F8
:1047200010BD000010B50C4600211180C4F8021025
:1047300041786170017821700178012902D0022945
:1047400023D044E04078082811D8DFE800F00507BE
:104750000D090B0D0D0D0D00152006E0022004E0E3
:10476000062002E0082000E00120108002E011880D
:10477000842081B31088FFF79FF8C4F8020020B3AB
:104780000146607800F046FB1BE0407828B1401EEF
:10479000062806D9C01F02D006E0082002E0072044
:1047A00000E01520108002E01188842099B1108863
:1047B000FFF782F80100C4F8021006D0607801F01B
:1047C00019F9022807D1842010BD872010BD0021CF
:1047D0008920C4F8021010BD2DE9FE4F0546884619
:1047E00068790027032108421CBF00F0030003285A
:1047F00000F0AF805948C068FDF7F0F842F60309B1
:1048000001E0FFF755F85549C968884261D08168D1
:104810006B888A89934224BFCA899A42F1D30A6875
:1048200091F804C04FF0000E00E0F7B1E645E8DA79
:1048300002EB0E110EF1010E4C899C42F6D1A1F152
:104840000C0421680E78497806EB012189B24945AC
:1048500001D0832071E0A4686979247811EA241FCB
:1048600001D1902069E0744600E0641C6445DDDA03
:1048700002EB0416D6F804A09AF800B09AF801A04A
:104880000BEB0A2A1FFA8AFA42F6021BDA451CD100
:10489000F4682468002600E0761CDFF8D0A09AF8BF
:1048A00000A0F6B256450CD234F826B0B5F800A0F8
:1048B000D345F1D104EB8607BC780C4203D0012725
:1048C000B4E7002FB2D18F2037E0CA45ADD1912097
:1048D00033E00FB9882030E028886B464FF6FF722E
:1048E0001B2100F0C7FC029008B9872025E06888EA
:1048F000BDF80010ADF804004145B4BFBDF800207C
:104900001FFA88F2ADF806204145B4BFBDF800207B
:1049100042460298A91DFDF7C7FF6879C1070ED569
:104920002A79288801A900F0FAFA5FEA000803D082
:104930001B2101A800F0ADFC4046BDE8FE8F8007BA
:1049400007D50C4803782A79288801A900F00DFBC7
:10495000EBE78420F1E70000F0840000DC1D00207C
:1049600004850000F8840000FC840000200500207D
:10497000C01D00203C060020634400009545000057
:1049800000000000DFF800F0A9C1011000B583B0FD
:104990000821ADF8001001900521ADF8021068461D
:1049A00044490968884707BDF0B589B004460D46FB
:1049B00016461F460823242200216846FBF72AFEDC
:1049C0000F983D49096806906B464FF47A70B0FB2A
:1049D000F1F101FB07F0059001FB06F20E98ADF82E
:1049E000100029462046FBF735FE204609B0F0BDF1
:1049F00038B504460D46FDF791F810B12046FDF795
:104A00007FF800F013F800FB05F12046FBF706FEE7
:104A10002046BDE83240FBF705BE80B5FDF77EF8C5
:104A200000B10120C0B202BDFDF76AB82249096891
:104A30004FF47A70B0FBF1F0704710B504460021D6
:104A4000FCF7D0FF204610BD70B584B004460820A6
:104A5000ADF800000D460420ADF802000C20154909
:104A60000968019016466846884768B9029959B1A5
:104A70008E602046FCF7AEFF25B14FF080412846FE
:104A8000FDF7E7F8012003E03046FFF77FFF002045
:104A900004B070BD10B50446FCF798FF38B9204645
:104AA000FFF770FF8468FFF771FF204610BD0020FC
:104AB00010BD00009404002024B00000E0B50821DF
:104AC000ADF800100190022100F00FF8002814BF8B
:104AD000002002980EBD00B583B00821ADF800108B
:104AE0000190032100F001F807BDADF802106846FF
:104AF000DFF8D013096808471FB5ADF806108DF828
:104B000004000824DFF8BC138DF808200393ADF8E7
:104B10000040ADF8024068460968884704B010BDFF
:104B200030B585B0144608220291ADF80020192254
:104B3000DFF8901309680190ADF802201D46684621
:104B4000884714B1BDF80C10218015B19DF80E10E6
:104B50002970089A0499116005B030BD00B583B082
:104B60000820ADF800001A2000F015F800280CBF4E
:104B70009DF80400FF200EBD00B583B0ADF8000025
:104B80008DF80610002000F006F800280CBF9DF8F4
:104B90000700FF200EBDDFF82C130968ADF80200F6
:104BA0006846084750B110F1040F01D10420704746
:104BB00010F1030F01D102207047012070478123BB
:104BC000037042EAC111002341F47C41C37081802B
:104BD00070478223037081800023C3708271704705
:104BE0003EB504460820ADF800000D462020ADF883
:104BF00002001020DFF8CC120968ADF80400684606
:104C0000884720B9029810B16FF004003EBD0095AE
:104C10000023002221464FF0FF30FFF781FF3EBD09
:104C200010B582B01446CA78012A03D18A88DFF809
:104C300088361A8000F010F858B90090694620466E
:104C4000FFF7CEFF28B900984478FFF744FF2046CD
:104C500016BDFFF7A7FF16BD0B46022210214BE73A
:104C600038B51C461546FFF7F7FFB8B900906946FE
:104C70002846FFF7B5FF88B900984578002D04BF96
:104C8000C079A04205D10098816804982246FDF7BA
:104C90000BFE0098FFF71FFF284632BDFFF782FF8B
:104CA00032BDF8B500F029FB00F03CFA07000DD04A
:104CB00032462946FFF78DFF00F09DFA3872FFF764
:104CC0004DFF3B4601B0BDE8F04092E0F1BD10223F
:104CD0000121E6E738B500F08AFA050002D0042287
:104CE00001217DE031BDF8B500F053FA07000AD08C
:104CF000132200F02CF800F08BFD3946BDE8F84097
:104D0000DFF8B8258CE70420F2BD2DE9F04100F072
:104D1000CDF907000FD0142200F019F83C72FD60A5
:104D20003E8287F81280FFF719FF3946BDE8F0414F
:104D3000DFF88C2574E725E038B500F06BFA050044
:104D400004D0152200F003F82C814CE031BD012184
:104D50003FE700220421A0E02DE9F04100F0A6F990
:104D600007000FD0022200F010F8BC60BD81BE73B6
:104D7000C7F81080FFF7F2FE3946BDE8F041DFF8D2
:104D800044254DE70420BDE8F081042121E72DE909
:104D9000F04100F08BF907000FD00722FFF7F5FF75
:104DA0003C81FD603E82A7F81280FFF7D7FE3946AE
:104DB000BDE8F041DFF8102532E7E3E710220221D9
:104DC0006FE738B500F026FA050006D0122200F091
:104DD00005F800F010FA287205E031BD0221F8E66E
:104DE000FFF7F7FEAC60FFF7B9FE2B4601B0BDE858
:104DF0003040022210217FE6002203214DE000B561
:104E000083B00FF26103019306230093032300F0A4
:104E10005BF80EBD80B50FF251020092052303220C
:104E200000F064F802BD1078802802BF508840F27C
:104E30007F61884208D19088984202BF917900989A
:104E4000814201D1012070470020704710B582B027
:104E5000062402E010B582B005240094FFF7E3FFBA
:104E600016BD00000323F1E70323F3E71078802841
:104E700002BF508840F27F6188420CD1908803289D
:104E800018BF042807D1907900281CBF10281128CA
:104E900001D10120704700207047F8B500F022FBD7
:104EA00007000CD032462946FFF793FEBC60FFF79F
:104EB00055FE3946BDE8F840DFF81024B0E604207E
:104EC000F2BD0000940400202DE9F04100F07FF8CD
:104ED00007000AD0069A4146FFF77BFE3C817D81A0
:104EE00000F098FC079A00F05EBB4BE72DE9F0411B
:104EF00000F06DF807000AD042463146FFF769FE20
:104F00003C81FD60FFF72AFE069A00F04CBB39E7B2
:104F100004460D460C20D1E5424603214FE670B50C
:104F200082B000F0EAF9FFF719FE1B210091034659
:104F300032462946204600F071F976BD1CB50020A6
:104F4000ADF8040000F0F9FA04000BD0062200F0DE
:104F50005CFCFFF703FE01A9009102230FF28142DE
:104F600000F0FFF8BDF8040016BD10B582B01D2496
:104F7000009400F053F916BD0A4601460FF2BD43F6
:104F8000012017E00A4601460FF2B5430B2011E05D
:104F90000A4601460FF2AD430D200BE001460FF229
:104FA000A9430022132005E001460FF2A14300228D
:104FB0001920FFE72DE9F04100F009F8070005D0BE
:104FC00022460221FFF7FBFD00F0E8BADAE60446CC
:104FD0000D46164698461020FFF770BD2DE9F041AA
:104FE00080460D4616461F461820FFF767FD040051
:104FF00014D0002200F061F800F082FB207265728C
:10500000A672E7600698206107986061FFF7A6FD29
:105010002146BDE8F0410FF2593201E6B2E60FF247
:105020005533112200216CE1F8B500F0EDF80700CE
:105030000FD00A2200F041F800F0DDF838727D81CF
:105040003E73FFF78BFD3946BDE8F8400FF2293279
:10505000E6E50420F2BD0FF22533062262E12DE9D8
:10506000F04180460D4616461F461020FFF726FDEC
:10507000040011D0072200F020F800F041FB20725C
:105080006572A672E760FFF769FD2146BDE8F04151
:105090000FF2ED22FFF7C4BD74E60FF2E9230822F8
:1050A00000213FE10FF2E123102215E104460D46F5
:1050B000164698461420FFF701BD0421FFF77FBD77
:1050C00070B5FFF725FF06000BD03022FFF7F5FF84
:1050D00000F009F83146BDE870400FF2B122FFF749
:1050E0009FBD042070BD34817581FFF737BD30B599
:1050F00083B004460020ADF8040000F013F805006A
:105100000DD03122FFF7D9FF2C81FFF727FD01A930
:10511000009102230FF279222946FFF7A1FDBDF885
:1051200004003EBD0A20FFF7C9BC0FF269230D221F
:10513000D2E01CB500F0FEF904000AD01222FFF7FD
:1051400006FEFFF70BFD00F008F80FF24D2200F00D
:1051500008F8FFE79DF8040016BD01A9009101239E
:1051600070472146FFF77CBDF8B500F012F8070044
:105170000DD03622FFF7A1FF3C817D8100F04AFB74
:105180003946BDE8F8400FF22122FFF749BD04205F
:10519000F2BD04460D4616461020FFF78FBC70B5D1
:1051A000054682B00C46FFF7BDFF06001DD0372232
:1051B000FFF783FF3581FFF7D1FC3346FFF74DFD45
:1051C00080B9009069460FF2E510FFF709FD48B974
:1051D000009845780DB900F04BF90098FFF77BFC7B
:1051E000284676BDFFF7DEFC76BD042076BD04467A
:1051F0000C20FFF763BC21465020FFF7BDBC3C816B
:105200007D81BE81FFF7AABC04460D4616460E20DE
:10521000FFF754BC04460A20FFF750BC2DE9F041CB
:10522000FFF744FF070011D0069AFFF776FE3C8196
:105230003E74FD6000F064FA7874FFF78FFC394625
:10524000BDE8F0410FF2A112FFF7EABCFFF79ABDEB
:10525000F8B5FFF7D9FF07000BD04322FFF75DFE3B
:10526000FFF7CDFF3946BDE8F8400FF29D12FFF77A
:10527000D7BCF1BD38B51446154A15682A0006D0CA
:10528000009302460B4621460120A84732BD00206C
:1052900032BD104A13681A0003D00A4601460120A5
:1052A000184770470B490B68190003D001460022CC
:1052B0000320184770470000AC0A0020515400003A
:1052C000575400005D540000675400006D4E00000C
:1052D00050160020541600202DE9F04100F00DF882
:1052E00098460C20FFF7EAFB070004D000F016F800
:1052F0003C81BD7254E1FFF745BD04460D4616469C
:1053000070472DE9F041FFF762FE070004D000F07E
:1053100005F8BC60FD6043E1FFF734BD324604216F
:10532000FFF74DBC2DE9F041FFF751FE070006D015
:10533000FFF7F4FFFFF75FFF3872FD6030E1FFF722
:1053400021BD1078802802BF508840F27F618842DA
:105350000CD190884FF680710140B1F57E4F04BFAB
:1053600000F07F00984201D1012070470020704773
:105370000023E6E71123E4E70A23E2E70623E0E758
:105380000723DEE70823DCE71023DAE73023D8E73A
:105390003123D6E70D23D4E780B5122300930123F0
:1053A000FFF741FD02BD00003623CAE73723C8E7F7
:1053B0001078802802BF508840F27F6188420DD16A
:1053C00090884FF6807101404FF68052914204BFA1
:1053D00000F07F00984201D1012070470020704703
:1053E000062300F01ABA000070B5FFF786FF1D23F0
:1053F000FFF7DEFF30B9324629462046BDE870404F
:105400001B23D5E7012070BD4323D1E71078802806
:1054100002BF508840F27F6188420CD190884FF6DD
:1054200080710140B1F57D4F04BF00F07F009842CC
:1054300001D1012070470020704700000123E5E7FB
:105440000B23E3E70D23E1E71323DFE71923DDE770
:1054500080B51323A2E780B514239FE780B502230C
:10546000009304239CE780B507230093042397E768
:10547000C27981682046FDF717BA00F077F802BDBF
:1054800000F05EF802BD0FF2491141F209003BE065
:1054900080B50FF2451100F0C4F841F20540EFE786
:1054A00080B50FF23D1200F0E4F842F21700E4E795
:1054B000F8B500F017F8070012D0812038703C7260
:1054C0000120F8707D7242F21E00B880BE72FFF7B4
:1054D00045FB3946BDE8F8400FF20D12FFF7A0BBBF
:1054E0000420F2BD04460D4616460C20FFF7E6BA2E
:1054F00080B50FF2FD0100F094F842F21D00BFE705
:105500000FF2F50142F21F0070B504460D4600F09F
:1055100014F806000CD081203070B4800120F070A7
:10552000FFF71CFB2A463146BDE87040FFF778BB09
:10553000042070BD00208DF804000820FFF7BEBADB
:105540002DE9F041FFF7D9FE98460E20FFF7B6FA95
:10555000070009D000F01CF83D817E81A7F80C807F
:10556000FFF7FCFA069A1EE0FFF70CBC2DE9F041AC
:10557000FFF79CFD070009D000F00AF8BD60FE604F
:10558000C7F81080FFF7EAFA069A0CE0FFF7FABBBB
:10559000812038700120F870BC8070473D81FE602A
:1055A000FFF7DCFA42463946BDE8F041FFF738BB69
:1055B0001078802802BF508840F27F61884204BF83
:1055C0009088984201D10120704700207047000068
:1055D00041F20903ECE7000041F20543E8E700006F
:1055E00042F21703E4E7000042F21E03E0E7000086
:1055F00042F21D03DCE7000042F21F03D8E780B54A
:105600000FF22D1100F00DF84FF6014006E080B5C5
:105610000FF2251100F005F84FF60240FFF790FF5A
:1056200002BD0091002301460022704780B50FF2B1
:10563000111200F01EF84FF60540FFE7FFF796FF46
:1056400002BD80B50FF20111FFF7EBFF4FF60740E7
:10565000E4E780B50FF2F901FFF7E3FF4FF61A40D8
:10566000DCE780B50FF2F10200F003F84FF60840D6
:10567000D4E7009200230A46014670470FF2E10189
:105680004FF6094040E780B50FF2DD01FFF7C9FF93
:105690004FF60A40C2E70FF2D9014FF60B4033E74D
:1056A00080B50FF2D501FFF7BCFF4FF60C40C5E700
:1056B00080B50FF2CD01FFF7B4FF4FF60D40ADE717
:1056C0000FF2C5014FF60E401EE780B50FF2C10183
:1056D000FFF7A7FF4FF61140A0E780B50FF2B90121
:1056E000FFF79FFF4FF6134098E780B50FF2B10226
:1056F000FFF7BFFF4FF6144090E73C817D81BE81EC
:1057000041465020FFF738BA80B50FF29D01FFF7F0
:1057100088FF4FF61D4081E780B50FF29503009397
:1057200013460A4601464FF6204087E70000000076
:105730004FF601433CE700004FF6024338E7000014
:105740004FF6054334E700004FF6074330E700000B
:105750004FF61A432CE700004FF6084328E70000F5
:105760004FF6094324E700004FF60A4320E7000004
:105770004FF60B431CE700004FF60C4318E7000000
:105780004FF60D4314E700004FF60E4310E70000FC
:105790004FF611430CE700004FF6134308E70000F3
:1057A0004FF6144304E700004FF61D4300E70000E6
:1057B0004FF62043FCE6F8B5FFF7EBFC07000DD0F1
:1057C000012200F022F83C727D7200F023F8394685
:1057D000BDE8F8400FF27502FFF722BA0420F2BDCF
:1057E000F8B5FFF7D6FC07000DD0022200F00DF847
:1057F0003C727D7200F00EF83946BDE8F8400FF2B9
:105800005102FFF70DBA0420F2BD0521FFF7D7B909
:105810003C81BD72FE60FFF7A1B91078802802BFFD
:10582000508840F27F6188420DD190884FF6807198
:1058300001404FF68062914204BF00F07F00984221
:1058400001D1012070470020704700000123E4E7E8
:105850000223E2E738B5FFF7CAFC05000CD00422AA
:10586000FFF7D3FFAC60FFF779F92946BDE8384070
:105870000FF23502FFF7D4B9042032BD1CB5002069
:105880000190FFF75AFE04000BD00522FFF7BDFF81
:10589000FFF764F901A9009104230FF21102FFF749
:1058A00060FC019816BD00000423B6E70523B4E7A9
:1058B0000FF26023944810221321FFF74DBA000025
:1058C0002DE9F0430024082885B00E4691468F4FFD
:1058D00000F28A80DFE800F0050C1824303C4853C1
:1058E0007D00082E76D13246494607F1080076E061
:1058F000152E77DA152107F11000FDF783F83246EF
:10590000494607F110006AE0152E6BDA152107F100
:105910002800FDF777F83246494607F128005EE097
:10592000152E5FDA152107F14000FDF76BF83246BE
:10593000494607F1400052E0152E53DA152107F1D0
:105940005800FDF75FF83246494607F1580046E037
:10595000152E47DA152107F17000FDF753F832468E
:10596000494607F170003AE0152E3BDA88371521D9
:105970003846FDF747F83246494638462FE00820BA
:10598000ADF808000420ADF80A00039602A8DFF87D
:105990008081D8F800108847C8B9049DBDB17868E7
:1059A00007F1A00188420AD00821ADF8001001904B
:1059B0000521ADF802106846D8F800108847324635
:1059C00049462846FCF770FF7D603E700DE01324C9
:1059D0000BE0072E06D13246494607F1B000FCF72E
:1059E00063FF02E0182400E00224204605B0BDE871
:1059F000F083000010B5024600240846082A4349F7
:105A000023D8DFE802F005080B0E1114171A1D0049
:105A10000822083116E01422103113E01422283134
:105A200010E0142240310DE0142258310AE0142213
:105A3000703107E01422883104E00A78496801E0F7
:105A40000722B031FCF730FF00E00224204610BDF1
:105A50002DE9FE4990464A680A9C107852780B9DC1
:105A600000EB02201F46002680B242F62322274B7D
:105A7000801A04EB030C07D0401E052810D9801FA4
:105A80001ED0263829D03AE0092C28D2C4F10800CB
:105A9000854228BFC4F108053D800CF1080129E0CA
:105AA000D1F80CB0584601F037FC80B2A04216DBAA
:105AB000011B8D42A8BF051B3D8004EB0B0119E0C3
:105AC00018780146A1420AD3001B8542A8BF0D1BCE
:105AD0003D8058683A8821180DE0082C01D307262C
